{
  "_format": "hh-sol-artifact-1",
  "contractName": "ProfileImageNfts",
  "sourceName": "contracts/MintProfileImage.sol",
  "abi": [
    {
      "inputs": [],
      "stateMutability": "nonpayable",
      "type": "constructor"
    },
    {
      "anonymous": false,
      "inputs": [
        {
          "indexed": true,
          "internalType": "address",
          "name": "owner",
          "type": "address"
        },
        {
          "indexed": true,
          "internalType": "address",
          "name": "approved",
          "type": "address"
        },
        {
          "indexed": true,
          "internalType": "uint256",
          "name": "tokenId",
          "type": "uint256"
        }
      ],
      "name": "Approval",
      "type": "event"
    },
    {
      "anonymous": false,
      "inputs": [
        {
          "indexed": true,
          "internalType": "address",
          "name": "owner",
          "type": "address"
        },
        {
          "indexed": true,
          "internalType": "address",
          "name": "operator",
          "type": "address"
        },
        {
          "indexed": false,
          "internalType": "bool",
          "name": "approved",
          "type": "bool"
        }
      ],
      "name": "ApprovalForAll",
      "type": "event"
    },
    {
      "anonymous": false,
      "inputs": [
        {
          "indexed": true,
          "internalType": "address",
          "name": "previousOwner",
          "type": "address"
        },
        {
          "indexed": true,
          "internalType": "address",
          "name": "newOwner",
          "type": "address"
        }
      ],
      "name": "OwnershipTransferred",
      "type": "event"
    },
    {
      "anonymous": false,
      "inputs": [
        {
          "indexed": true,
          "internalType": "address",
          "name": "from",
          "type": "address"
        },
        {
          "indexed": true,
          "internalType": "address",
          "name": "to",
          "type": "address"
        },
        {
          "indexed": true,
          "internalType": "uint256",
          "name": "tokenId",
          "type": "uint256"
        }
      ],
      "name": "Transfer",
      "type": "event"
    },
    {
      "inputs": [
        {
          "internalType": "address",
          "name": "to",
          "type": "address"
        },
        {
          "internalType": "uint256",
          "name": "tokenId",
          "type": "uint256"
        }
      ],
      "name": "approve",
      "outputs": [],
      "stateMutability": "nonpayable",
      "type": "function"
    },
    {
      "inputs": [
        {
          "internalType": "address",
          "name": "owner",
          "type": "address"
        }
      ],
      "name": "balanceOf",
      "outputs": [
        {
          "internalType": "uint256",
          "name": "",
          "type": "uint256"
        }
      ],
      "stateMutability": "view",
      "type": "function"
    },
    {
      "inputs": [],
      "name": "getAlltoken",
      "outputs": [
        {
          "components": [
            {
              "internalType": "uint256",
              "name": "id",
              "type": "uint256"
            },
            {
              "internalType": "string",
              "name": "uri",
              "type": "string"
            },
            {
              "internalType": "string",
              "name": "space",
              "type": "string"
            }
          ],
          "internalType": "struct ProfileImageNfts.RenderToken[]",
          "name": "",
          "type": "tuple[]"
        }
      ],
      "stateMutability": "view",
      "type": "function"
    },
    {
      "inputs": [
        {
          "internalType": "uint256",
          "name": "tokenId",
          "type": "uint256"
        }
      ],
      "name": "getApproved",
      "outputs": [
        {
          "internalType": "address",
          "name": "",
          "type": "address"
        }
      ],
      "stateMutability": "view",
      "type": "function"
    },
    {
      "inputs": [
        {
          "internalType": "address",
          "name": "owner",
          "type": "address"
        },
        {
          "internalType": "address",
          "name": "operator",
          "type": "address"
        }
      ],
      "name": "isApprovedForAll",
      "outputs": [
        {
          "internalType": "bool",
          "name": "",
          "type": "bool"
        }
      ],
      "stateMutability": "view",
      "type": "function"
    },
    {
      "inputs": [
        {
          "internalType": "address",
          "name": "recipents",
          "type": "address"
        },
        {
          "internalType": "string",
          "name": "_uri",
          "type": "string"
        }
      ],
      "name": "mint",
      "outputs": [
        {
          "internalType": "uint256",
          "name": "",
          "type": "uint256"
        }
      ],
      "stateMutability": "nonpayable",
      "type": "function"
    },
    {
      "inputs": [],
      "name": "name",
      "outputs": [
        {
          "internalType": "string",
          "name": "",
          "type": "string"
        }
      ],
      "stateMutability": "view",
      "type": "function"
    },
    {
      "inputs": [],
      "name": "owner",
      "outputs": [
        {
          "internalType": "address",
          "name": "",
          "type": "address"
        }
      ],
      "stateMutability": "view",
      "type": "function"
    },
    {
      "inputs": [
        {
          "internalType": "uint256",
          "name": "tokenId",
          "type": "uint256"
        }
      ],
      "name": "ownerOf",
      "outputs": [
        {
          "internalType": "address",
          "name": "",
          "type": "address"
        }
      ],
      "stateMutability": "view",
      "type": "function"
    },
    {
      "inputs": [],
      "name": "renounceOwnership",
      "outputs": [],
      "stateMutability": "nonpayable",
      "type": "function"
    },
    {
      "inputs": [
        {
          "internalType": "address",
          "name": "from",
          "type": "address"
        },
        {
          "internalType": "address",
          "name": "to",
          "type": "address"
        },
        {
          "internalType": "uint256",
          "name": "tokenId",
          "type": "uint256"
        }
      ],
      "name": "safeTransferFrom",
      "outputs": [],
      "stateMutability": "nonpayable",
      "type": "function"
    },
    {
      "inputs": [
        {
          "internalType": "address",
          "name": "from",
          "type": "address"
        },
        {
          "internalType": "address",
          "name": "to",
          "type": "address"
        },
        {
          "internalType": "uint256",
          "name": "tokenId",
          "type": "uint256"
        },
        {
          "internalType": "bytes",
          "name": "data",
          "type": "bytes"
        }
      ],
      "name": "safeTransferFrom",
      "outputs": [],
      "stateMutability": "nonpayable",
      "type": "function"
    },
    {
      "inputs": [
        {
          "internalType": "address",
          "name": "operator",
          "type": "address"
        },
        {
          "internalType": "bool",
          "name": "approved",
          "type": "bool"
        }
      ],
      "name": "setApprovalForAll",
      "outputs": [],
      "stateMutability": "nonpayable",
      "type": "function"
    },
    {
      "inputs": [
        {
          "internalType": "bytes4",
          "name": "interfaceId",
          "type": "bytes4"
        }
      ],
      "name": "supportsInterface",
      "outputs": [
        {
          "internalType": "bool",
          "name": "",
          "type": "bool"
        }
      ],
      "stateMutability": "view",
      "type": "function"
    },
    {
      "inputs": [],
      "name": "symbol",
      "outputs": [
        {
          "internalType": "string",
          "name": "",
          "type": "string"
        }
      ],
      "stateMutability": "view",
      "type": "function"
    },
    {
      "inputs": [
        {
          "internalType": "uint256",
          "name": "tokenId",
          "type": "uint256"
        }
      ],
      "name": "tokenURI",
      "outputs": [
        {
          "internalType": "string",
          "name": "",
          "type": "string"
        }
      ],
      "stateMutability": "view",
      "type": "function"
    },
    {
      "inputs": [
        {
          "internalType": "address",
          "name": "from",
          "type": "address"
        },
        {
          "internalType": "address",
          "name": "to",
          "type": "address"
        },
        {
          "internalType": "uint256",
          "name": "tokenId",
          "type": "uint256"
        }
      ],
      "name": "transferFrom",
      "outputs": [],
      "stateMutability": "nonpayable",
      "type": "function"
    },
    {
      "inputs": [
        {
          "internalType": "address",
          "name": "newOwner",
          "type": "address"
        }
      ],
      "name": "transferOwnership",
      "outputs": [],
      "stateMutability": "nonpayable",
      "type": "function"
    }
  ],
  "bytecode": "0x60806040523480156200001157600080fd5b506040518060400160405280601081526020017f50726f66696c65496d6167654e667473000000000000000000000000000000008152506040518060400160405280600381526020017f50494e0000000000000000000000000000000000000000000000000000000000815250816000908051906020019062000096929190620001a6565b508060019080519060200190620000af929190620001a6565b505050620000d2620000c6620000d860201b60201c565b620000e060201b60201c565b620002bb565b600033905090565b6000600660009054906101000a900473ffffffffffffffffffffffffffffffffffffffff16905081600660006101000a81548173ffffffffffffffffffffffffffffffffffffffff021916908373ffffffffffffffffffffffffffffffffffffffff1602179055508173ffffffffffffffffffffffffffffffffffffffff168173ffffffffffffffffffffffffffffffffffffffff167f8be0079c531659141344cd1fd0a4f28419497f9722a3daafe3b4186f6b6457e060405160405180910390a35050565b828054620001b49062000256565b90600052602060002090601f016020900481019282620001d8576000855562000224565b82601f10620001f357805160ff191683800117855562000224565b8280016001018555821562000224579182015b828111156200022357825182559160200191906001019062000206565b5b50905062000233919062000237565b5090565b5b808211156200025257600081600090555060010162000238565b5090565b600060028204905060018216806200026f57607f821691505b602082108114156200028657620002856200028c565b5b50919050565b7f4e487b7100000000000000000000000000000000000000000000000000000000600052602260045260246000fd5b612ba780620002cb6000396000f3fe608060405234801561001057600080fd5b50600436106101165760003560e01c8063715018a6116100a2578063b88d4fde11610071578063b88d4fde146102cd578063c87b56dd146102e9578063d0def52114610319578063e985e9c514610349578063f2fde38b1461037957610116565b8063715018a61461026b5780638da5cb5b1461027557806395d89b4114610293578063a22cb465146102b157610116565b806323b872dd116100e957806323b872dd146101b557806328904431146101d157806342842e0e146101ef5780636352211e1461020b57806370a082311461023b57610116565b806301ffc9a71461011b57806306fdde031461014b578063081812fc14610169578063095ea7b314610199575b600080fd5b61013560048036038101906101309190611dd1565b610395565b6040516101429190612286565b60405180910390f35b610153610477565b60405161016091906122a1565b60405180910390f35b610183600480360381019061017e9190611e23565b610509565b60405161019091906121fd565b60405180910390f35b6101b360048036038101906101ae9190611d95565b61054f565b005b6101cf60048036038101906101ca9190611c3b565b610667565b005b6101d96106c7565b6040516101e69190612264565b60405180910390f35b61020960048036038101906102049190611c3b565b61082c565b005b61022560048036038101906102209190611e23565b61084c565b60405161023291906121fd565b60405180910390f35b61025560048036038101906102509190611bd6565b6108d3565b6040516102629190612483565b60405180910390f35b61027361098b565b005b61027d61099f565b60405161028a91906121fd565b60405180910390f35b61029b6109c9565b6040516102a891906122a1565b60405180910390f35b6102cb60048036038101906102c69190611d05565b610a5b565b005b6102e760048036038101906102e29190611c8a565b610a71565b005b61030360048036038101906102fe9190611e23565b610ad3565b60405161031091906122a1565b60405180910390f35b610333600480360381019061032e9190611d41565b610bc6565b6040516103409190612483565b60405180910390f35b610363600480360381019061035e9190611bff565b610bfd565b6040516103709190612286565b60405180910390f35b610393600480360381019061038e9190611bd6565b610c91565b005b60007f80ac58cd000000000000000000000000000000000000000000000000000000007bffffffffffffffffffffffffffffffffffffffffffffffffffffffff1916827bffffffffffffffffffffffffffffffffffffffffffffffffffffffff1916148061046057507f5b5e139f000000000000000000000000000000000000000000000000000000007bffffffffffffffffffffffffffffffffffffffffffffffffffffffff1916827bffffffffffffffffffffffffffffffffffffffffffffffffffffffff1916145b80610470575061046f82610d15565b5b9050919050565b6060600080546104869061265d565b80601f01602080910402602001604051908101604052809291908181526020018280546104b29061265d565b80156104ff5780601f106104d4576101008083540402835291602001916104ff565b820191906000526020600020905b8154815290600101906020018083116104e257829003601f168201915b5050505050905090565b600061051482610d7f565b6004600083815260200190815260200160002060009054906101000a900473ffffffffffffffffffffffffffffffffffffffff169050919050565b600061055a8261084c565b90508073ffffffffffffffffffffffffffffffffffffffff168373ffffffffffffffffffffffffffffffffffffffff1614156105cb576040517f08c379a00000000000000000000000000000000000000000000000000000000081526004016105c290612423565b60405180910390fd5b8073ffffffffffffffffffffffffffffffffffffffff166105ea610dca565b73ffffffffffffffffffffffffffffffffffffffff161480610619575061061881610613610dca565b610bfd565b5b610658576040517f08c379a000000000000000000000000000000000000000000000000000000000815260040161064f90612443565b60405180910390fd5b6106628383610dd2565b505050565b610678610672610dca565b82610e8b565b6106b7576040517f08c379a00000000000000000000000000000000000000000000000000000000081526004016106ae906122c3565b60405180910390fd5b6106c2838383610f20565b505050565b606060006106d5600761121a565b905060008167ffffffffffffffff811115610719577f4e487b7100000000000000000000000000000000000000000000000000000000600052604160045260246000fd5b60405190808252806020026020018201604052801561075257816020015b61073f6119d9565b8152602001906001900390816107375790505b50905060005b8281116108235761076881611228565b1561081057600061077882610ad3565b905060405180606001604052808381526020018281526020016040518060400160405280600181526020017f2000000000000000000000000000000000000000000000000000000000000000815250815250838381518110610803577f4e487b7100000000000000000000000000000000000000000000000000000000600052603260045260246000fd5b6020026020010181905250505b808061081b906126c0565b915050610758565b50809250505090565b61084783838360405180602001604052806000815250610a71565b505050565b60008061085883611269565b9050600073ffffffffffffffffffffffffffffffffffffffff168173ffffffffffffffffffffffffffffffffffffffff1614156108ca576040517f08c379a00000000000000000000000000000000000000000000000000000000081526004016108c190612403565b60405180910390fd5b80915050919050565b60008073ffffffffffffffffffffffffffffffffffffffff168273ffffffffffffffffffffffffffffffffffffffff161415610944576040517f08c379a000000000000000000000000000000000000000000000000000000000815260040161093b906123a3565b60405180910390fd5b600360008373ffffffffffffffffffffffffffffffffffffffff1673ffffffffffffffffffffffffffffffffffffffff168152602001908152602001600020549050919050565b6109936112a6565b61099d6000611324565b565b6000600660009054906101000a900473ffffffffffffffffffffffffffffffffffffffff16905090565b6060600180546109d89061265d565b80601f0160208091040260200160405190810160405280929190818152602001828054610a049061265d565b8015610a515780601f10610a2657610100808354040283529160200191610a51565b820191906000526020600020905b815481529060010190602001808311610a3457829003601f168201915b5050505050905090565b610a6d610a66610dca565b83836113ea565b5050565b610a82610a7c610dca565b83610e8b565b610ac1576040517f08c379a0000000000000000000000000000000000000000000000000000000008152600401610ab8906122c3565b60405180910390fd5b610acd84848484611557565b50505050565b6060610ade82611228565b610b1d576040517f08c379a0000000000000000000000000000000000000000000000000000000008152600401610b1490612463565b60405180910390fd5b6000600860008481526020019081526020016000208054610b3d9061265d565b80601f0160208091040260200160405190810160405280929190818152602001828054610b699061265d565b8015610bb65780601f10610b8b57610100808354040283529160200191610bb6565b820191906000526020600020905b815481529060010190602001808311610b9957829003601f168201915b5050505050905080915050919050565b600080610bd3600761121a565b9050610bdf84826115b3565b610be981846117d1565b610bf360076117fd565b8091505092915050565b6000600560008473ffffffffffffffffffffffffffffffffffffffff1673ffffffffffffffffffffffffffffffffffffffff16815260200190815260200160002060008373ffffffffffffffffffffffffffffffffffffffff1673ffffffffffffffffffffffffffffffffffffffff16815260200190815260200160002060009054906101000a900460ff16905092915050565b610c996112a6565b600073ffffffffffffffffffffffffffffffffffffffff168173ffffffffffffffffffffffffffffffffffffffff161415610d09576040517f08c379a0000000000000000000000000000000000000000000000000000000008152600401610d0090612303565b60405180910390fd5b610d1281611324565b50565b60007f01ffc9a7000000000000000000000000000000000000000000000000000000007bffffffffffffffffffffffffffffffffffffffffffffffffffffffff1916827bffffffffffffffffffffffffffffffffffffffffffffffffffffffff1916149050919050565b610d8881611228565b610dc7576040517f08c379a0000000000000000000000000000000000000000000000000000000008152600401610dbe90612403565b60405180910390fd5b50565b600033905090565b816004600083815260200190815260200160002060006101000a81548173ffffffffffffffffffffffffffffffffffffffff021916908373ffffffffffffffffffffffffffffffffffffffff160217905550808273ffffffffffffffffffffffffffffffffffffffff16610e458361084c565b73ffffffffffffffffffffffffffffffffffffffff167f8c5be1e5ebec7d5bd14f71427d1e84f3dd0314c0f7b2291e5b200ac8c7c3b92560405160405180910390a45050565b600080610e978361084c565b90508073ffffffffffffffffffffffffffffffffffffffff168473ffffffffffffffffffffffffffffffffffffffff161480610ed95750610ed88185610bfd565b5b80610f1757508373ffffffffffffffffffffffffffffffffffffffff16610eff84610509565b73ffffffffffffffffffffffffffffffffffffffff16145b91505092915050565b8273ffffffffffffffffffffffffffffffffffffffff16610f408261084c565b73ffffffffffffffffffffffffffffffffffffffff1614610f96576040517f08c379a0000000000000000000000000000000000000000000000000000000008152600401610f8d90612323565b60405180910390fd5b600073ffffffffffffffffffffffffffffffffffffffff168273ffffffffffffffffffffffffffffffffffffffff161415611006576040517f08c379a0000000000000000000000000000000000000000000000000000000008152600401610ffd90612363565b60405180910390fd5b6110138383836001611813565b8273ffffffffffffffffffffffffffffffffffffffff166110338261084c565b73ffffffffffffffffffffffffffffffffffffffff1614611089576040517f08c379a000000000000000000000000000000000000000000000000000000000815260040161108090612323565b60405180910390fd5b6004600082815260200190815260200160002060006101000a81549073ffffffffffffffffffffffffffffffffffffffff02191690556001600360008573ffffffffffffffffffffffffffffffffffffffff1673ffffffffffffffffffffffffffffffffffffffff168152602001908152602001600020600082825403925050819055506001600360008473ffffffffffffffffffffffffffffffffffffffff1673ffffffffffffffffffffffffffffffffffffffff16815260200190815260200160002060008282540192505081905550816002600083815260200190815260200160002060006101000a81548173ffffffffffffffffffffffffffffffffffffffff021916908373ffffffffffffffffffffffffffffffffffffffff160217905550808273ffffffffffffffffffffffffffffffffffffffff168473ffffffffffffffffffffffffffffffffffffffff167fddf252ad1be2c89b69c2b068fc378daa952ba7f163c4a11628f55a4df523b3ef60405160405180910390a46112158383836001611819565b505050565b600081600001549050919050565b60008073ffffffffffffffffffffffffffffffffffffffff1661124a83611269565b73ffffffffffffffffffffffffffffffffffffffff1614159050919050565b60006002600083815260200190815260200160002060009054906101000a900473ffffffffffffffffffffffffffffffffffffffff169050919050565b6112ae610dca565b73ffffffffffffffffffffffffffffffffffffffff166112cc61099f565b73ffffffffffffffffffffffffffffffffffffffff1614611322576040517f08c379a0000000000000000000000000000000000000000000000000000000008152600401611319906123e3565b60405180910390fd5b565b6000600660009054906101000a900473ffffffffffffffffffffffffffffffffffffffff16905081600660006101000a81548173ffffffffffffffffffffffffffffffffffffffff021916908373ffffffffffffffffffffffffffffffffffffffff1602179055508173ffffffffffffffffffffffffffffffffffffffff168173ffffffffffffffffffffffffffffffffffffffff167f8be0079c531659141344cd1fd0a4f28419497f9722a3daafe3b4186f6b6457e060405160405180910390a35050565b8173ffffffffffffffffffffffffffffffffffffffff168373ffffffffffffffffffffffffffffffffffffffff161415611459576040517f08c379a000000000000000000000000000000000000000000000000000000000815260040161145090612383565b60405180910390fd5b80600560008573ffffffffffffffffffffffffffffffffffffffff1673ffffffffffffffffffffffffffffffffffffffff16815260200190815260200160002060008473ffffffffffffffffffffffffffffffffffffffff1673ffffffffffffffffffffffffffffffffffffffff16815260200190815260200160002060006101000a81548160ff0219169083151502179055508173ffffffffffffffffffffffffffffffffffffffff168373ffffffffffffffffffffffffffffffffffffffff167f17307eab39ab6107e8899845ad3d59bd9653f200f220920489ca2b5937696c318360405161154a9190612286565b60405180910390a3505050565b611562848484610f20565b61156e8484848461181f565b6115ad576040517f08c379a00000000000000000000000000000000000000000000000000000000081526004016115a4906122e3565b60405180910390fd5b50505050565b600073ffffffffffffffffffffffffffffffffffffffff168273ffffffffffffffffffffffffffffffffffffffff161415611623576040517f08c379a000000000000000000000000000000000000000000000000000000000815260040161161a906123c3565b60405180910390fd5b61162c81611228565b1561166c576040517f08c379a000000000000000000000000000000000000000000000000000000000815260040161166390612343565b60405180910390fd5b61167a600083836001611813565b61168381611228565b156116c3576040517f08c379a00000000000000000000000000000000000000000000000000000000081526004016116ba90612343565b60405180910390fd5b6001600360008473ffffffffffffffffffffffffffffffffffffffff1673ffffffffffffffffffffffffffffffffffffffff16815260200190815260200160002060008282540192505081905550816002600083815260200190815260200160002060006101000a81548173ffffffffffffffffffffffffffffffffffffffff021916908373ffffffffffffffffffffffffffffffffffffffff160217905550808273ffffffffffffffffffffffffffffffffffffffff16600073ffffffffffffffffffffffffffffffffffffffff167fddf252ad1be2c89b69c2b068fc378daa952ba7f163c4a11628f55a4df523b3ef60405160405180910390a46117cd600083836001611819565b5050565b806008600084815260200190815260200160002090805190602001906117f89291906119fa565b505050565b6001816000016000828254019250508190555050565b50505050565b50505050565b60006118408473ffffffffffffffffffffffffffffffffffffffff166119b6565b156119a9578373ffffffffffffffffffffffffffffffffffffffff1663150b7a02611869610dca565b8786866040518563ffffffff1660e01b815260040161188b9493929190612218565b602060405180830381600087803b1580156118a557600080fd5b505af19250505080156118d657506040513d601f19601f820116820180604052508101906118d39190611dfa565b60015b611959573d8060008114611906576040519150601f19603f3d011682016040523d82523d6000602084013e61190b565b606091505b50600081511415611951576040517f08c379a0000000000000000000000000000000000000000000000000000000008152600401611948906122e3565b60405180910390fd5b805181602001fd5b63150b7a0260e01b7bffffffffffffffffffffffffffffffffffffffffffffffffffffffff1916817bffffffffffffffffffffffffffffffffffffffffffffffffffffffff1916149150506119ae565b600190505b949350505050565b6000808273ffffffffffffffffffffffffffffffffffffffff163b119050919050565b60405180606001604052806000815260200160608152602001606081525090565b828054611a069061265d565b90600052602060002090601f016020900481019282611a285760008555611a6f565b82601f10611a4157805160ff1916838001178555611a6f565b82800160010185558215611a6f579182015b82811115611a6e578251825591602001919060010190611a53565b5b509050611a7c9190611a80565b5090565b5b80821115611a99576000816000905550600101611a81565b5090565b6000611ab0611aab846124c3565b61249e565b905082815260208101848484011115611ac857600080fd5b611ad384828561261b565b509392505050565b6000611aee611ae9846124f4565b61249e565b905082815260208101848484011115611b0657600080fd5b611b1184828561261b565b509392505050565b600081359050611b2881612b15565b92915050565b600081359050611b3d81612b2c565b92915050565b600081359050611b5281612b43565b92915050565b600081519050611b6781612b43565b92915050565b600082601f830112611b7e57600080fd5b8135611b8e848260208601611a9d565b91505092915050565b600082601f830112611ba857600080fd5b8135611bb8848260208601611adb565b91505092915050565b600081359050611bd081612b5a565b92915050565b600060208284031215611be857600080fd5b6000611bf684828501611b19565b91505092915050565b60008060408385031215611c1257600080fd5b6000611c2085828601611b19565b9250506020611c3185828601611b19565b9150509250929050565b600080600060608486031215611c5057600080fd5b6000611c5e86828701611b19565b9350506020611c6f86828701611b19565b9250506040611c8086828701611bc1565b9150509250925092565b60008060008060808587031215611ca057600080fd5b6000611cae87828801611b19565b9450506020611cbf87828801611b19565b9350506040611cd087828801611bc1565b925050606085013567ffffffffffffffff811115611ced57600080fd5b611cf987828801611b6d565b91505092959194509250565b60008060408385031215611d1857600080fd5b6000611d2685828601611b19565b9250506020611d3785828601611b2e565b9150509250929050565b60008060408385031215611d5457600080fd5b6000611d6285828601611b19565b925050602083013567ffffffffffffffff811115611d7f57600080fd5b611d8b85828601611b97565b9150509250929050565b60008060408385031215611da857600080fd5b6000611db685828601611b19565b9250506020611dc785828601611bc1565b9150509250929050565b600060208284031215611de357600080fd5b6000611df184828501611b43565b91505092915050565b600060208284031215611e0c57600080fd5b6000611e1a84828501611b58565b91505092915050565b600060208284031215611e3557600080fd5b6000611e4384828501611bc1565b91505092915050565b6000611e588383612188565b905092915050565b611e69816125a7565b82525050565b6000611e7a82612535565b611e848185612563565b935083602082028501611e9685612525565b8060005b85811015611ed25784840389528151611eb38582611e4c565b9450611ebe83612556565b925060208a01995050600181019050611e9a565b50829750879550505050505092915050565b611eed816125b9565b82525050565b6000611efe82612540565b611f088185612574565b9350611f1881856020860161262a565b611f2181612796565b840191505092915050565b6000611f378261254b565b611f418185612585565b9350611f5181856020860161262a565b611f5a81612796565b840191505092915050565b6000611f708261254b565b611f7a8185612596565b9350611f8a81856020860161262a565b611f9381612796565b840191505092915050565b6000611fab602d83612596565b9150611fb6826127a7565b604082019050919050565b6000611fce603283612596565b9150611fd9826127f6565b604082019050919050565b6000611ff1602683612596565b9150611ffc82612845565b604082019050919050565b6000612014602583612596565b915061201f82612894565b604082019050919050565b6000612037601c83612596565b9150612042826128e3565b602082019050919050565b600061205a602483612596565b91506120658261290c565b604082019050919050565b600061207d601983612596565b91506120888261295b565b602082019050919050565b60006120a0602983612596565b91506120ab82612984565b604082019050919050565b60006120c3602083612596565b91506120ce826129d3565b602082019050919050565b60006120e6602083612596565b91506120f1826129fc565b602082019050919050565b6000612109601883612596565b915061211482612a25565b602082019050919050565b600061212c602183612596565b915061213782612a4e565b604082019050919050565b600061214f603d83612596565b915061215a82612a9d565b604082019050919050565b6000612172601883612596565b915061217d82612aec565b602082019050919050565b60006060830160008301516121a060008601826121df565b50602083015184820360208601526121b88282611f2c565b915050604083015184820360408601526121d28282611f2c565b9150508091505092915050565b6121e881612611565b82525050565b6121f781612611565b82525050565b60006020820190506122126000830184611e60565b92915050565b600060808201905061222d6000830187611e60565b61223a6020830186611e60565b61224760408301856121ee565b81810360608301526122598184611ef3565b905095945050505050565b6000602082019050818103600083015261227e8184611e6f565b905092915050565b600060208201905061229b6000830184611ee4565b92915050565b600060208201905081810360008301526122bb8184611f65565b905092915050565b600060208201905081810360008301526122dc81611f9e565b9050919050565b600060208201905081810360008301526122fc81611fc1565b9050919050565b6000602082019050818103600083015261231c81611fe4565b9050919050565b6000602082019050818103600083015261233c81612007565b9050919050565b6000602082019050818103600083015261235c8161202a565b9050919050565b6000602082019050818103600083015261237c8161204d565b9050919050565b6000602082019050818103600083015261239c81612070565b9050919050565b600060208201905081810360008301526123bc81612093565b9050919050565b600060208201905081810360008301526123dc816120b6565b9050919050565b600060208201905081810360008301526123fc816120d9565b9050919050565b6000602082019050818103600083015261241c816120fc565b9050919050565b6000602082019050818103600083015261243c8161211f565b9050919050565b6000602082019050818103600083015261245c81612142565b9050919050565b6000602082019050818103600083015261247c81612165565b9050919050565b600060208201905061249860008301846121ee565b92915050565b60006124a86124b9565b90506124b4828261268f565b919050565b6000604051905090565b600067ffffffffffffffff8211156124de576124dd612767565b5b6124e782612796565b9050602081019050919050565b600067ffffffffffffffff82111561250f5761250e612767565b5b61251882612796565b9050602081019050919050565b6000819050602082019050919050565b600081519050919050565b600081519050919050565b600081519050919050565b6000602082019050919050565b600082825260208201905092915050565b600082825260208201905092915050565b600082825260208201905092915050565b600082825260208201905092915050565b60006125b2826125f1565b9050919050565b60008115159050919050565b60007fffffffff0000000000000000000000000000000000000000000000000000000082169050919050565b600073ffffffffffffffffffffffffffffffffffffffff82169050919050565b6000819050919050565b82818337600083830152505050565b60005b8381101561264857808201518184015260208101905061262d565b83811115612657576000848401525b50505050565b6000600282049050600182168061267557607f821691505b6020821081141561268957612688612738565b5b50919050565b61269882612796565b810181811067ffffffffffffffff821117156126b7576126b6612767565b5b80604052505050565b60006126cb82612611565b91507fffffffffffffffffffffffffffffffffffffffffffffffffffffffffffffffff8214156126fe576126fd612709565b5b600182019050919050565b7f4e487b7100000000000000000000000000000000000000000000000000000000600052601160045260246000fd5b7f4e487b7100000000000000000000000000000000000000000000000000000000600052602260045260246000fd5b7f4e487b7100000000000000000000000000000000000000000000000000000000600052604160045260246000fd5b6000601f19601f8301169050919050565b7f4552433732313a2063616c6c6572206973206e6f7420746f6b656e206f776e6560008201527f72206f7220617070726f76656400000000000000000000000000000000000000602082015250565b7f4552433732313a207472616e7366657220746f206e6f6e20455243373231526560008201527f63656976657220696d706c656d656e7465720000000000000000000000000000602082015250565b7f4f776e61626c653a206e6577206f776e657220697320746865207a65726f206160008201527f6464726573730000000000000000000000000000000000000000000000000000602082015250565b7f4552433732313a207472616e736665722066726f6d20696e636f72726563742060008201527f6f776e6572000000000000000000000000000000000000000000000000000000602082015250565b7f4552433732313a20746f6b656e20616c7265616479206d696e74656400000000600082015250565b7f4552433732313a207472616e7366657220746f20746865207a65726f2061646460008201527f7265737300000000000000000000000000000000000000000000000000000000602082015250565b7f4552433732313a20617070726f766520746f2063616c6c657200000000000000600082015250565b7f4552433732313a2061646472657373207a65726f206973206e6f74206120766160008201527f6c6964206f776e65720000000000000000000000000000000000000000000000602082015250565b7f4552433732313a206d696e7420746f20746865207a65726f2061646472657373600082015250565b7f4f776e61626c653a2063616c6c6572206973206e6f7420746865206f776e6572600082015250565b7f4552433732313a20696e76616c696420746f6b656e2049440000000000000000600082015250565b7f4552433732313a20617070726f76616c20746f2063757272656e74206f776e6560008201527f7200000000000000000000000000000000000000000000000000000000000000602082015250565b7f4552433732313a20617070726f76652063616c6c6572206973206e6f7420746f60008201527f6b656e206f776e6572206f7220617070726f76656420666f7220616c6c000000602082015250565b7f555249206e6f74206578697374206f6e20746861742049440000000000000000600082015250565b612b1e816125a7565b8114612b2957600080fd5b50565b612b35816125b9565b8114612b4057600080fd5b50565b612b4c816125c5565b8114612b5757600080fd5b50565b612b6381612611565b8114612b6e57600080fd5b5056fea2646970667358221220a26d89bed181e6ff91e64b578777df95fa66953e7c27f092af395faeb650064264736f6c63430008020033",
  "linkReferences": {},
  "deployedLinkReferences": {}
}